{
  "contractName": "Pass",
  "abi": [
    {
      "inputs": [],
      "stateMutability": "nonpayable",
      "type": "constructor"
    },
    {
      "anonymous": false,
      "inputs": [
        {
          "indexed": true,
          "internalType": "address",
          "name": "account",
          "type": "address"
        },
        {
          "indexed": true,
          "internalType": "address",
          "name": "operator",
          "type": "address"
        },
        {
          "indexed": false,
          "internalType": "bool",
          "name": "approved",
          "type": "bool"
        }
      ],
      "name": "ApprovalForAll",
      "type": "event"
    },
    {
      "anonymous": false,
      "inputs": [
        {
          "indexed": true,
          "internalType": "address",
          "name": "previousOwner",
          "type": "address"
        },
        {
          "indexed": true,
          "internalType": "address",
          "name": "newOwner",
          "type": "address"
        }
      ],
      "name": "OwnershipTransferred",
      "type": "event"
    },
    {
      "anonymous": false,
      "inputs": [
        {
          "indexed": true,
          "internalType": "address",
          "name": "operator",
          "type": "address"
        },
        {
          "indexed": true,
          "internalType": "address",
          "name": "from",
          "type": "address"
        },
        {
          "indexed": true,
          "internalType": "address",
          "name": "to",
          "type": "address"
        },
        {
          "indexed": false,
          "internalType": "uint256[]",
          "name": "ids",
          "type": "uint256[]"
        },
        {
          "indexed": false,
          "internalType": "uint256[]",
          "name": "values",
          "type": "uint256[]"
        }
      ],
      "name": "TransferBatch",
      "type": "event"
    },
    {
      "anonymous": false,
      "inputs": [
        {
          "indexed": true,
          "internalType": "address",
          "name": "operator",
          "type": "address"
        },
        {
          "indexed": true,
          "internalType": "address",
          "name": "from",
          "type": "address"
        },
        {
          "indexed": true,
          "internalType": "address",
          "name": "to",
          "type": "address"
        },
        {
          "indexed": false,
          "internalType": "uint256",
          "name": "id",
          "type": "uint256"
        },
        {
          "indexed": false,
          "internalType": "uint256",
          "name": "value",
          "type": "uint256"
        }
      ],
      "name": "TransferSingle",
      "type": "event"
    },
    {
      "anonymous": false,
      "inputs": [
        {
          "indexed": false,
          "internalType": "string",
          "name": "value",
          "type": "string"
        },
        {
          "indexed": true,
          "internalType": "uint256",
          "name": "id",
          "type": "uint256"
        }
      ],
      "name": "URI",
      "type": "event"
    },
    {
      "inputs": [
        {
          "internalType": "address",
          "name": "account",
          "type": "address"
        },
        {
          "internalType": "uint256",
          "name": "id",
          "type": "uint256"
        }
      ],
      "name": "balanceOf",
      "outputs": [
        {
          "internalType": "uint256",
          "name": "",
          "type": "uint256"
        }
      ],
      "stateMutability": "view",
      "type": "function"
    },
    {
      "inputs": [
        {
          "internalType": "address[]",
          "name": "accounts",
          "type": "address[]"
        },
        {
          "internalType": "uint256[]",
          "name": "ids",
          "type": "uint256[]"
        }
      ],
      "name": "balanceOfBatch",
      "outputs": [
        {
          "internalType": "uint256[]",
          "name": "",
          "type": "uint256[]"
        }
      ],
      "stateMutability": "view",
      "type": "function"
    },
    {
      "inputs": [
        {
          "internalType": "address",
          "name": "account",
          "type": "address"
        },
        {
          "internalType": "address",
          "name": "operator",
          "type": "address"
        }
      ],
      "name": "isApprovedForAll",
      "outputs": [
        {
          "internalType": "bool",
          "name": "",
          "type": "bool"
        }
      ],
      "stateMutability": "view",
      "type": "function"
    },
    {
      "inputs": [],
      "name": "name",
      "outputs": [
        {
          "internalType": "string",
          "name": "",
          "type": "string"
        }
      ],
      "stateMutability": "view",
      "type": "function"
    },
    {
      "inputs": [],
      "name": "owner",
      "outputs": [
        {
          "internalType": "address",
          "name": "",
          "type": "address"
        }
      ],
      "stateMutability": "view",
      "type": "function"
    },
    {
      "inputs": [],
      "name": "renounceOwnership",
      "outputs": [],
      "stateMutability": "nonpayable",
      "type": "function"
    },
    {
      "inputs": [
        {
          "internalType": "address",
          "name": "from",
          "type": "address"
        },
        {
          "internalType": "address",
          "name": "to",
          "type": "address"
        },
        {
          "internalType": "uint256[]",
          "name": "ids",
          "type": "uint256[]"
        },
        {
          "internalType": "uint256[]",
          "name": "amounts",
          "type": "uint256[]"
        },
        {
          "internalType": "bytes",
          "name": "data",
          "type": "bytes"
        }
      ],
      "name": "safeBatchTransferFrom",
      "outputs": [],
      "stateMutability": "nonpayable",
      "type": "function"
    },
    {
      "inputs": [
        {
          "internalType": "address",
          "name": "from",
          "type": "address"
        },
        {
          "internalType": "address",
          "name": "to",
          "type": "address"
        },
        {
          "internalType": "uint256",
          "name": "id",
          "type": "uint256"
        },
        {
          "internalType": "uint256",
          "name": "amount",
          "type": "uint256"
        },
        {
          "internalType": "bytes",
          "name": "data",
          "type": "bytes"
        }
      ],
      "name": "safeTransferFrom",
      "outputs": [],
      "stateMutability": "nonpayable",
      "type": "function"
    },
    {
      "inputs": [
        {
          "internalType": "address",
          "name": "operator",
          "type": "address"
        },
        {
          "internalType": "bool",
          "name": "approved",
          "type": "bool"
        }
      ],
      "name": "setApprovalForAll",
      "outputs": [],
      "stateMutability": "nonpayable",
      "type": "function"
    },
    {
      "inputs": [
        {
          "internalType": "bytes4",
          "name": "interfaceId",
          "type": "bytes4"
        }
      ],
      "name": "supportsInterface",
      "outputs": [
        {
          "internalType": "bool",
          "name": "",
          "type": "bool"
        }
      ],
      "stateMutability": "view",
      "type": "function"
    },
    {
      "inputs": [],
      "name": "symbol",
      "outputs": [
        {
          "internalType": "string",
          "name": "",
          "type": "string"
        }
      ],
      "stateMutability": "view",
      "type": "function"
    },
    {
      "inputs": [
        {
          "internalType": "uint256",
          "name": "",
          "type": "uint256"
        }
      ],
      "name": "tokenURI",
      "outputs": [
        {
          "internalType": "string",
          "name": "",
          "type": "string"
        }
      ],
      "stateMutability": "view",
      "type": "function"
    },
    {
      "inputs": [
        {
          "internalType": "address",
          "name": "newOwner",
          "type": "address"
        }
      ],
      "name": "transferOwnership",
      "outputs": [],
      "stateMutability": "nonpayable",
      "type": "function"
    },
    {
      "inputs": [
        {
          "internalType": "address",
          "name": "_to",
          "type": "address"
        },
        {
          "internalType": "uint256",
          "name": "_id",
          "type": "uint256"
        },
        {
          "internalType": "uint256",
          "name": "_amount",
          "type": "uint256"
        }
      ],
      "name": "mint",
      "outputs": [],
      "stateMutability": "nonpayable",
      "type": "function"
    },
    {
      "inputs": [
        {
          "internalType": "address",
          "name": "_to",
          "type": "address"
        },
        {
          "internalType": "uint256[]",
          "name": "_ids",
          "type": "uint256[]"
        },
        {
          "internalType": "uint256[]",
          "name": "_amounts",
          "type": "uint256[]"
        }
      ],
      "name": "mintBatch",
      "outputs": [],
      "stateMutability": "nonpayable",
      "type": "function"
    },
    {
      "inputs": [
        {
          "internalType": "uint256",
          "name": "_id",
          "type": "uint256"
        },
        {
          "internalType": "uint256",
          "name": "_amount",
          "type": "uint256"
        }
      ],
      "name": "burn",
      "outputs": [],
      "stateMutability": "nonpayable",
      "type": "function"
    },
    {
      "inputs": [
        {
          "internalType": "uint256[]",
          "name": "_ids",
          "type": "uint256[]"
        },
        {
          "internalType": "uint256[]",
          "name": "_amounts",
          "type": "uint256[]"
        }
      ],
      "name": "burnBatch",
      "outputs": [],
      "stateMutability": "nonpayable",
      "type": "function"
    },
    {
      "inputs": [
        {
          "internalType": "address",
          "name": "_from",
          "type": "address"
        },
        {
          "internalType": "uint256[]",
          "name": "_burnIds",
          "type": "uint256[]"
        },
        {
          "internalType": "uint256[]",
          "name": "_burnAmounts",
          "type": "uint256[]"
        },
        {
          "internalType": "uint256[]",
          "name": "_mintIds",
          "type": "uint256[]"
        },
        {
          "internalType": "uint256[]",
          "name": "_mintAmounts",
          "type": "uint256[]"
        }
      ],
      "name": "burnForMint",
      "outputs": [],
      "stateMutability": "nonpayable",
      "type": "function"
    },
    {
      "inputs": [
        {
          "internalType": "uint256",
          "name": "_id",
          "type": "uint256"
        },
        {
          "internalType": "string",
          "name": "_uri",
          "type": "string"
        }
      ],
      "name": "setURI",
      "outputs": [],
      "stateMutability": "nonpayable",
      "type": "function"
    },
    {
      "inputs": [
        {
          "internalType": "uint256",
          "name": "_id",
          "type": "uint256"
        }
      ],
      "name": "uri",
      "outputs": [
        {
          "internalType": "string",
          "name": "",
          "type": "string"
        }
      ],
      "stateMutability": "view",
      "type": "function"
    }
  ],
  "bytecode": "0x60806040523480156200001157600080fd5b50604051806020016040528060008152506200003381620000f660201b60201c565b5062000054620000486200011260201b60201c565b6200011a60201b60201c565b6040518060400160405280601e81526020017f536f6c616e612044656c6869204861636b657220486f7573652050617373000081525060049080519060200190620000a1929190620001e0565b506040518060400160405280600481526020017f504153530000000000000000000000000000000000000000000000000000000081525060059080519060200190620000ef929190620001e0565b50620002f5565b80600290805190602001906200010e929190620001e0565b5050565b600033905090565b6000600360009054906101000a900473ffffffffffffffffffffffffffffffffffffffff16905081600360006101000a81548173ffffffffffffffffffffffffffffffffffffffff021916908373ffffffffffffffffffffffffffffffffffffffff1602179055508173ffffffffffffffffffffffffffffffffffffffff168173ffffffffffffffffffffffffffffffffffffffff167f8be0079c531659141344cd1fd0a4f28419497f9722a3daafe3b4186f6b6457e060405160405180910390a35050565b828054620001ee9062000290565b90600052602060002090601f0160209004810192826200021257600085556200025e565b82601f106200022d57805160ff19168380011785556200025e565b828001600101855582156200025e579182015b828111156200025d57825182559160200191906001019062000240565b5b5090506200026d919062000271565b5090565b5b808211156200028c57600081600090555060010162000272565b5090565b60006002820490506001821680620002a957607f821691505b60208210811415620002c057620002bf620002c6565b5b50919050565b7f4e487b7100000000000000000000000000000000000000000000000000000000600052602260045260246000fd5b613c4b80620003056000396000f3fe608060405234801561001057600080fd5b506004361061012b5760003560e01c8063862440e2116100ad578063c87b56dd11610071578063c87b56dd14610318578063d81d0a1514610348578063e985e9c514610364578063f242432a14610394578063f2fde38b146103b05761012b565b8063862440e2146102885780638da5cb5b146102a457806395d89b41146102c2578063a22cb465146102e0578063b390c0ab146102fc5761012b565b80632eb2c2d6116100f45780632eb2c2d6146101fa5780634e1273f414610216578063510f410414610246578063715018a61461026257806383ca4b6f1461026c5761012b565b8062fdd58e1461013057806301ffc9a71461016057806306fdde03146101905780630e89341c146101ae578063156e29f6146101de575b600080fd5b61014a600480360381019061014591906129af565b6103cc565b6040516101579190613296565b60405180910390f35b61017a60048036038101906101759190612b32565b610495565b6040516101879190613099565b60405180910390f35b610198610577565b6040516101a591906130b4565b60405180910390f35b6101c860048036038101906101c39190612b8c565b610605565b6040516101d591906130b4565b60405180910390f35b6101f860048036038101906101f391906129ef565b6106aa565b005b610214600480360381019061020f9190612693565b6106d2565b005b610230600480360381019061022b9190612a42565b610773565b60405161023d9190613040565b60405180910390f35b610260600480360381019061025b9190612884565b61088c565b005b61026a6108c1565b005b61028660048036038101906102819190612aba565b6108d5565b005b6102a2600480360381019061029d9190612bb9565b6108e4565b005b6102ac610950565b6040516102b99190612f63565b60405180910390f35b6102ca61097a565b6040516102d791906130b4565b60405180910390f35b6102fa60048036038101906102f5919061296f565b610a08565b005b61031660048036038101906103119190612c15565b610a1e565b005b610332600480360381019061032d9190612b8c565b610a2d565b60405161033f91906130b4565b60405180910390f35b610362600480360381019061035d91906127f9565b610acd565b005b61037e60048036038101906103799190612653565b610af5565b60405161038b9190613099565b60405180910390f35b6103ae60048036038101906103a99190612762565b610b89565b005b6103ca60048036038101906103c59190612626565b610c2a565b005b60008073ffffffffffffffffffffffffffffffffffffffff168373ffffffffffffffffffffffffffffffffffffffff16141561043d576040517f08c379a000000000000000000000000000000000000000000000000000000000815260040161043490613176565b60405180910390fd5b60008083815260200190815260200160002060008473ffffffffffffffffffffffffffffffffffffffff1673ffffffffffffffffffffffffffffffffffffffff16815260200190815260200160002054905092915050565b60007fd9b67a26000000000000000000000000000000000000000000000000000000007bffffffffffffffffffffffffffffffffffffffffffffffffffffffff1916827bffffffffffffffffffffffffffffffffffffffffffffffffffffffff1916148061056057507f0e89341c000000000000000000000000000000000000000000000000000000007bffffffffffffffffffffffffffffffffffffffffffffffffffffffff1916827bffffffffffffffffffffffffffffffffffffffffffffffffffffffff1916145b80610570575061056f82610cae565b5b9050919050565b6004805461058490613536565b80601f01602080910402602001604051908101604052809291908181526020018280546105b090613536565b80156105fd5780601f106105d2576101008083540402835291602001916105fd565b820191906000526020600020905b8154815290600101906020018083116105e057829003601f168201915b505050505081565b606060066000838152602001908152602001600020805461062590613536565b80601f016020809104026020016040519081016040528092919081815260200182805461065190613536565b801561069e5780601f106106735761010080835404028352916020019161069e565b820191906000526020600020905b81548152906001019060200180831161068157829003601f168201915b50505050509050919050565b6106b2610d18565b6106cd83838360405180602001604052806000815250610d96565b505050565b6106da610f47565b73ffffffffffffffffffffffffffffffffffffffff168573ffffffffffffffffffffffffffffffffffffffff161480610720575061071f8561071a610f47565b610af5565b5b61075f576040517f08c379a0000000000000000000000000000000000000000000000000000000008152600401610756906130f6565b60405180910390fd5b61076c8585858585610f4f565b5050505050565b606081518351146107b9576040517f08c379a00000000000000000000000000000000000000000000000000000000081526004016107b090613236565b60405180910390fd5b6000835167ffffffffffffffff8111156107d6576107d561366f565b5b6040519080825280602002602001820160405280156108045781602001602082028036833780820191505090505b50905060005b84518110156108815761085185828151811061082957610828613640565b5b602002602001015185838151811061084457610843613640565b5b60200260200101516103cc565b82828151811061086457610863613640565b5b6020026020010181815250508061087a90613599565b905061080a565b508091505092915050565b610894610d18565b61089f858585611271565b6108ba85838360405180602001604052806000815250611540565b5050505050565b6108c9610d18565b6108d3600061176d565b565b6108e0338383611271565b5050565b6108ec610d18565b806006600084815260200190815260200160002090805190602001906109139291906122fe565b50817f6bb7ff708619ba0610cba295a58592e0451dee2622938c8755667688daf3529b8260405161094491906130b4565b60405180910390a25050565b6000600360009054906101000a900473ffffffffffffffffffffffffffffffffffffffff16905090565b6005805461098790613536565b80601f01602080910402602001604051908101604052809291908181526020018280546109b390613536565b8015610a005780601f106109d557610100808354040283529160200191610a00565b820191906000526020600020905b8154815290600101906020018083116109e357829003601f168201915b505050505081565b610a1a610a13610f47565b8383611833565b5050565b610a293383836119a0565b5050565b60066020528060005260406000206000915090508054610a4c90613536565b80601f0160208091040260200160405190810160405280929190818152602001828054610a7890613536565b8015610ac55780601f10610a9a57610100808354040283529160200191610ac5565b820191906000526020600020905b815481529060010190602001808311610aa857829003601f168201915b505050505081565b610ad5610d18565b610af083838360405180602001604052806000815250611540565b505050565b6000600160008473ffffffffffffffffffffffffffffffffffffffff1673ffffffffffffffffffffffffffffffffffffffff16815260200190815260200160002060008373ffffffffffffffffffffffffffffffffffffffff1673ffffffffffffffffffffffffffffffffffffffff16815260200190815260200160002060009054906101000a900460ff16905092915050565b610b91610f47565b73ffffffffffffffffffffffffffffffffffffffff168573ffffffffffffffffffffffffffffffffffffffff161480610bd75750610bd685610bd1610f47565b610af5565b5b610c16576040517f08c379a0000000000000000000000000000000000000000000000000000000008152600401610c0d906130f6565b60405180910390fd5b610c238585858585611be7565b5050505050565b610c32610d18565b600073ffffffffffffffffffffffffffffffffffffffff168173ffffffffffffffffffffffffffffffffffffffff161415610ca2576040517f08c379a0000000000000000000000000000000000000000000000000000000008152600401610c9990613136565b60405180910390fd5b610cab8161176d565b50565b60007f01ffc9a7000000000000000000000000000000000000000000000000000000007bffffffffffffffffffffffffffffffffffffffffffffffffffffffff1916827bffffffffffffffffffffffffffffffffffffffffffffffffffffffff1916149050919050565b610d20610f47565b73ffffffffffffffffffffffffffffffffffffffff16610d3e610950565b73ffffffffffffffffffffffffffffffffffffffff1614610d94576040517f08c379a0000000000000000000000000000000000000000000000000000000008152600401610d8b906131f6565b60405180910390fd5b565b600073ffffffffffffffffffffffffffffffffffffffff168473ffffffffffffffffffffffffffffffffffffffff161415610e06576040517f08c379a0000000000000000000000000000000000000000000000000000000008152600401610dfd90613276565b60405180910390fd5b6000610e10610f47565b90506000610e1d85611e83565b90506000610e2a85611e83565b9050610e3b83600089858589611efd565b8460008088815260200190815260200160002060008973ffffffffffffffffffffffffffffffffffffffff1673ffffffffffffffffffffffffffffffffffffffff1681526020019081526020016000206000828254610e9a919061342a565b925050819055508673ffffffffffffffffffffffffffffffffffffffff16600073ffffffffffffffffffffffffffffffffffffffff168473ffffffffffffffffffffffffffffffffffffffff167fc3d58168c5ae7397731d063d5bbf3d657854427343f4c083240f7aacaa2d0f628989604051610f189291906132b1565b60405180910390a4610f2f83600089858589611f05565b610f3e83600089898989611f0d565b50505050505050565b600033905090565b8151835114610f93576040517f08c379a0000000000000000000000000000000000000000000000000000000008152600401610f8a90613256565b60405180910390fd5b600073ffffffffffffffffffffffffffffffffffffffff168473ffffffffffffffffffffffffffffffffffffffff161415611003576040517f08c379a0000000000000000000000000000000000000000000000000000000008152600401610ffa90613196565b60405180910390fd5b600061100d610f47565b905061101d818787878787611efd565b60005b84518110156111ce57600085828151811061103e5761103d613640565b5b60200260200101519050600085838151811061105d5761105c613640565b5b60200260200101519050600080600084815260200190815260200160002060008b73ffffffffffffffffffffffffffffffffffffffff1673ffffffffffffffffffffffffffffffffffffffff168152602001908152602001600020549050818110156110fe576040517f08c379a00000000000000000000000000000000000000000000000000000000081526004016110f5906131d6565b60405180910390fd5b81810360008085815260200190815260200160002060008c73ffffffffffffffffffffffffffffffffffffffff1673ffffffffffffffffffffffffffffffffffffffff168152602001908152602001600020819055508160008085815260200190815260200160002060008b73ffffffffffffffffffffffffffffffffffffffff1673ffffffffffffffffffffffffffffffffffffffff16815260200190815260200160002060008282546111b3919061342a565b92505081905550505050806111c790613599565b9050611020565b508473ffffffffffffffffffffffffffffffffffffffff168673ffffffffffffffffffffffffffffffffffffffff168273ffffffffffffffffffffffffffffffffffffffff167f4a39dc06d4c0dbc64b70af90fd698a233a518aa5d07e595d983b8c0526c8f7fb8787604051611245929190613062565b60405180910390a461125b818787878787611f05565b6112698187878787876120f4565b505050505050565b600073ffffffffffffffffffffffffffffffffffffffff168373ffffffffffffffffffffffffffffffffffffffff1614156112e1576040517f08c379a00000000000000000000000000000000000000000000000000000000081526004016112d8906131b6565b60405180910390fd5b8051825114611325576040517f08c379a000000000000000000000000000000000000000000000000000000000815260040161131c90613256565b60405180910390fd5b600061132f610f47565b905061134f81856000868660405180602001604052806000815250611efd565b60005b835181101561149c5760008482815181106113705761136f613640565b5b60200260200101519050600084838151811061138f5761138e613640565b5b60200260200101519050600080600084815260200190815260200160002060008973ffffffffffffffffffffffffffffffffffffffff1673ffffffffffffffffffffffffffffffffffffffff16815260200190815260200160002054905081811015611430576040517f08c379a000000000000000000000000000000000000000000000000000000000815260040161142790613156565b60405180910390fd5b81810360008085815260200190815260200160002060008a73ffffffffffffffffffffffffffffffffffffffff1673ffffffffffffffffffffffffffffffffffffffff16815260200190815260200160002081905550505050808061149490613599565b915050611352565b50600073ffffffffffffffffffffffffffffffffffffffff168473ffffffffffffffffffffffffffffffffffffffff168273ffffffffffffffffffffffffffffffffffffffff167f4a39dc06d4c0dbc64b70af90fd698a233a518aa5d07e595d983b8c0526c8f7fb8686604051611514929190613062565b60405180910390a461153a81856000868660405180602001604052806000815250611f05565b50505050565b600073ffffffffffffffffffffffffffffffffffffffff168473ffffffffffffffffffffffffffffffffffffffff1614156115b0576040517f08c379a00000000000000000000000000000000000000000000000000000000081526004016115a790613276565b60405180910390fd5b81518351146115f4576040517f08c379a00000000000000000000000000000000000000000000000000000000081526004016115eb90613256565b60405180910390fd5b60006115fe610f47565b905061160f81600087878787611efd565b60005b84518110156116c85783818151811061162e5761162d613640565b5b602002602001015160008087848151811061164c5761164b613640565b5b6020026020010151815260200190815260200160002060008873ffffffffffffffffffffffffffffffffffffffff1673ffffffffffffffffffffffffffffffffffffffff16815260200190815260200160002060008282546116ae919061342a565b9250508190555080806116c090613599565b915050611612565b508473ffffffffffffffffffffffffffffffffffffffff16600073ffffffffffffffffffffffffffffffffffffffff168273ffffffffffffffffffffffffffffffffffffffff167f4a39dc06d4c0dbc64b70af90fd698a233a518aa5d07e595d983b8c0526c8f7fb8787604051611740929190613062565b60405180910390a461175781600087878787611f05565b611766816000878787876120f4565b5050505050565b6000600360009054906101000a900473ffffffffffffffffffffffffffffffffffffffff16905081600360006101000a81548173ffffffffffffffffffffffffffffffffffffffff021916908373ffffffffffffffffffffffffffffffffffffffff1602179055508173ffffffffffffffffffffffffffffffffffffffff168173ffffffffffffffffffffffffffffffffffffffff167f8be0079c531659141344cd1fd0a4f28419497f9722a3daafe3b4186f6b6457e060405160405180910390a35050565b8173ffffffffffffffffffffffffffffffffffffffff168373ffffffffffffffffffffffffffffffffffffffff1614156118a2576040517f08c379a000000000000000000000000000000000000000000000000000000000815260040161189990613216565b60405180910390fd5b80600160008573ffffffffffffffffffffffffffffffffffffffff1673ffffffffffffffffffffffffffffffffffffffff16815260200190815260200160002060008473ffffffffffffffffffffffffffffffffffffffff1673ffffffffffffffffffffffffffffffffffffffff16815260200190815260200160002060006101000a81548160ff0219169083151502179055508173ffffffffffffffffffffffffffffffffffffffff168373ffffffffffffffffffffffffffffffffffffffff167f17307eab39ab6107e8899845ad3d59bd9653f200f220920489ca2b5937696c31836040516119939190613099565b60405180910390a3505050565b600073ffffffffffffffffffffffffffffffffffffffff168373ffffffffffffffffffffffffffffffffffffffff161415611a10576040517f08c379a0000000000000000000000000000000000000000000000000000000008152600401611a07906131b6565b60405180910390fd5b6000611a1a610f47565b90506000611a2784611e83565b90506000611a3484611e83565b9050611a5483876000858560405180602001604052806000815250611efd565b600080600087815260200190815260200160002060008873ffffffffffffffffffffffffffffffffffffffff1673ffffffffffffffffffffffffffffffffffffffff16815260200190815260200160002054905084811015611aeb576040517f08c379a0000000000000000000000000000000000000000000000000000000008152600401611ae290613156565b60405180910390fd5b84810360008088815260200190815260200160002060008973ffffffffffffffffffffffffffffffffffffffff1673ffffffffffffffffffffffffffffffffffffffff16815260200190815260200160002081905550600073ffffffffffffffffffffffffffffffffffffffff168773ffffffffffffffffffffffffffffffffffffffff168573ffffffffffffffffffffffffffffffffffffffff167fc3d58168c5ae7397731d063d5bbf3d657854427343f4c083240f7aacaa2d0f628989604051611bb89291906132b1565b60405180910390a4611bde84886000868660405180602001604052806000815250611f05565b50505050505050565b600073ffffffffffffffffffffffffffffffffffffffff168473ffffffffffffffffffffffffffffffffffffffff161415611c57576040517f08c379a0000000000000000000000000000000000000000000000000000000008152600401611c4e90613196565b60405180910390fd5b6000611c61610f47565b90506000611c6e85611e83565b90506000611c7b85611e83565b9050611c8b838989858589611efd565b600080600088815260200190815260200160002060008a73ffffffffffffffffffffffffffffffffffffffff1673ffffffffffffffffffffffffffffffffffffffff16815260200190815260200160002054905085811015611d22576040517f08c379a0000000000000000000000000000000000000000000000000000000008152600401611d19906131d6565b60405180910390fd5b85810360008089815260200190815260200160002060008b73ffffffffffffffffffffffffffffffffffffffff1673ffffffffffffffffffffffffffffffffffffffff168152602001908152602001600020819055508560008089815260200190815260200160002060008a73ffffffffffffffffffffffffffffffffffffffff1673ffffffffffffffffffffffffffffffffffffffff1681526020019081526020016000206000828254611dd7919061342a565b925050819055508773ffffffffffffffffffffffffffffffffffffffff168973ffffffffffffffffffffffffffffffffffffffff168573ffffffffffffffffffffffffffffffffffffffff167fc3d58168c5ae7397731d063d5bbf3d657854427343f4c083240f7aacaa2d0f628a8a604051611e549291906132b1565b60405180910390a4611e6a848a8a86868a611f05565b611e78848a8a8a8a8a611f0d565b505050505050505050565b60606000600167ffffffffffffffff811115611ea257611ea161366f565b5b604051908082528060200260200182016040528015611ed05781602001602082028036833780820191505090505b5090508281600081518110611ee857611ee7613640565b5b60200260200101818152505080915050919050565b505050505050565b505050505050565b611f2c8473ffffffffffffffffffffffffffffffffffffffff166122db565b156120ec578373ffffffffffffffffffffffffffffffffffffffff1663f23a6e6187878686866040518663ffffffff1660e01b8152600401611f72959493929190612fe6565b602060405180830381600087803b158015611f8c57600080fd5b505af1925050508015611fbd57506040513d601f19601f82011682018060405250810190611fba9190612b5f565b60015b61206357611fc961369e565b806308c379a014156120265750611fde613b23565b80611fe95750612028565b806040517f08c379a000000000000000000000000000000000000000000000000000000000815260040161201d91906130b4565b60405180910390fd5b505b6040517f08c379a000000000000000000000000000000000000000000000000000000000815260040161205a906130d6565b60405180910390fd5b63f23a6e6160e01b7bffffffffffffffffffffffffffffffffffffffffffffffffffffffff1916817bffffffffffffffffffffffffffffffffffffffffffffffffffffffff1916146120ea576040517f08c379a00000000000000000000000000000000000000000000000000000000081526004016120e190613116565b60405180910390fd5b505b505050505050565b6121138473ffffffffffffffffffffffffffffffffffffffff166122db565b156122d3578373ffffffffffffffffffffffffffffffffffffffff1663bc197c8187878686866040518663ffffffff1660e01b8152600401612159959493929190612f7e565b602060405180830381600087803b15801561217357600080fd5b505af19250505080156121a457506040513d601f19601f820116820180604052508101906121a19190612b5f565b60015b61224a576121b061369e565b806308c379a0141561220d57506121c5613b23565b806121d0575061220f565b806040517f08c379a000000000000000000000000000000000000000000000000000000000815260040161220491906130b4565b60405180910390fd5b505b6040517f08c379a0000000000000000000000000000000000000000000000000000000008152600401612241906130d6565b60405180910390fd5b63bc197c8160e01b7bffffffffffffffffffffffffffffffffffffffffffffffffffffffff1916817bffffffffffffffffffffffffffffffffffffffffffffffffffffffff1916146122d1576040517f08c379a00000000000000000000000000000000000000000000000000000000081526004016122c890613116565b60405180910390fd5b505b505050505050565b6000808273ffffffffffffffffffffffffffffffffffffffff163b119050919050565b82805461230a90613536565b90600052602060002090601f01602090048101928261232c5760008555612373565b82601f1061234557805160ff1916838001178555612373565b82800160010185558215612373579182015b82811115612372578251825591602001919060010190612357565b5b5090506123809190612384565b5090565b5b8082111561239d576000816000905550600101612385565b5090565b60006123b46123af846132ff565b6132da565b905080838252602082019050828560208602820111156123d7576123d66136c5565b5b60005b8581101561240757816123ed8882612505565b8452602084019350602083019250506001810190506123da565b5050509392505050565b600061242461241f8461332b565b6132da565b90508083825260208201905082856020860282011115612447576124466136c5565b5b60005b85811015612477578161245d8882612611565b84526020840193506020830192505060018101905061244a565b5050509392505050565b600061249461248f84613357565b6132da565b9050828152602081018484840111156124b0576124af6136ca565b5b6124bb8482856134f4565b509392505050565b60006124d66124d184613388565b6132da565b9050828152602081018484840111156124f2576124f16136ca565b5b6124fd8482856134f4565b509392505050565b60008135905061251481613bb9565b92915050565b600082601f83011261252f5761252e6136c0565b5b813561253f8482602086016123a1565b91505092915050565b600082601f83011261255d5761255c6136c0565b5b813561256d848260208601612411565b91505092915050565b60008135905061258581613bd0565b92915050565b60008135905061259a81613be7565b92915050565b6000815190506125af81613be7565b92915050565b600082601f8301126125ca576125c96136c0565b5b81356125da848260208601612481565b91505092915050565b600082601f8301126125f8576125f76136c0565b5b81356126088482602086016124c3565b91505092915050565b60008135905061262081613bfe565b92915050565b60006020828403121561263c5761263b6136d4565b5b600061264a84828501612505565b91505092915050565b6000806040838503121561266a576126696136d4565b5b600061267885828601612505565b925050602061268985828601612505565b9150509250929050565b600080600080600060a086880312156126af576126ae6136d4565b5b60006126bd88828901612505565b95505060206126ce88828901612505565b945050604086013567ffffffffffffffff8111156126ef576126ee6136cf565b5b6126fb88828901612548565b935050606086013567ffffffffffffffff81111561271c5761271b6136cf565b5b61272888828901612548565b925050608086013567ffffffffffffffff811115612749576127486136cf565b5b612755888289016125b5565b9150509295509295909350565b600080600080600060a0868803121561277e5761277d6136d4565b5b600061278c88828901612505565b955050602061279d88828901612505565b94505060406127ae88828901612611565b93505060606127bf88828901612611565b925050608086013567ffffffffffffffff8111156127e0576127df6136cf565b5b6127ec888289016125b5565b9150509295509295909350565b600080600060608486031215612812576128116136d4565b5b600061282086828701612505565b935050602084013567ffffffffffffffff811115612841576128406136cf565b5b61284d86828701612548565b925050604084013567ffffffffffffffff81111561286e5761286d6136cf565b5b61287a86828701612548565b9150509250925092565b600080600080600060a086880312156128a05761289f6136d4565b5b60006128ae88828901612505565b955050602086013567ffffffffffffffff8111156128cf576128ce6136cf565b5b6128db88828901612548565b945050604086013567ffffffffffffffff8111156128fc576128fb6136cf565b5b61290888828901612548565b935050606086013567ffffffffffffffff811115612929576129286136cf565b5b61293588828901612548565b925050608086013567ffffffffffffffff811115612956576129556136cf565b5b61296288828901612548565b9150509295509295909350565b60008060408385031215612986576129856136d4565b5b600061299485828601612505565b92505060206129a585828601612576565b9150509250929050565b600080604083850312156129c6576129c56136d4565b5b60006129d485828601612505565b92505060206129e585828601612611565b9150509250929050565b600080600060608486031215612a0857612a076136d4565b5b6000612a1686828701612505565b9350506020612a2786828701612611565b9250506040612a3886828701612611565b9150509250925092565b60008060408385031215612a5957612a586136d4565b5b600083013567ffffffffffffffff811115612a7757612a766136cf565b5b612a838582860161251a565b925050602083013567ffffffffffffffff811115612aa457612aa36136cf565b5b612ab085828601612548565b9150509250929050565b60008060408385031215612ad157612ad06136d4565b5b600083013567ffffffffffffffff811115612aef57612aee6136cf565b5b612afb85828601612548565b925050602083013567ffffffffffffffff811115612b1c57612b1b6136cf565b5b612b2885828601612548565b9150509250929050565b600060208284031215612b4857612b476136d4565b5b6000612b568482850161258b565b91505092915050565b600060208284031215612b7557612b746136d4565b5b6000612b83848285016125a0565b91505092915050565b600060208284031215612ba257612ba16136d4565b5b6000612bb084828501612611565b91505092915050565b60008060408385031215612bd057612bcf6136d4565b5b6000612bde85828601612611565b925050602083013567ffffffffffffffff811115612bff57612bfe6136cf565b5b612c0b858286016125e3565b9150509250929050565b60008060408385031215612c2c57612c2b6136d4565b5b6000612c3a85828601612611565b9250506020612c4b85828601612611565b9150509250929050565b6000612c618383612f45565b60208301905092915050565b612c7681613480565b82525050565b6000612c87826133c9565b612c9181856133f7565b9350612c9c836133b9565b8060005b83811015612ccd578151612cb48882612c55565b9750612cbf836133ea565b925050600181019050612ca0565b5085935050505092915050565b612ce381613492565b82525050565b6000612cf4826133d4565b612cfe8185613408565b9350612d0e818560208601613503565b612d17816136d9565b840191505092915050565b6000612d2d826133df565b612d378185613419565b9350612d47818560208601613503565b612d50816136d9565b840191505092915050565b6000612d68603483613419565b9150612d73826136f7565b604082019050919050565b6000612d8b602f83613419565b9150612d9682613746565b604082019050919050565b6000612dae602883613419565b9150612db982613795565b604082019050919050565b6000612dd1602683613419565b9150612ddc826137e4565b604082019050919050565b6000612df4602483613419565b9150612dff82613833565b604082019050919050565b6000612e17602a83613419565b9150612e2282613882565b604082019050919050565b6000612e3a602583613419565b9150612e45826138d1565b604082019050919050565b6000612e5d602383613419565b9150612e6882613920565b604082019050919050565b6000612e80602a83613419565b9150612e8b8261396f565b604082019050919050565b6000612ea3602083613419565b9150612eae826139be565b602082019050919050565b6000612ec6602983613419565b9150612ed1826139e7565b604082019050919050565b6000612ee9602983613419565b9150612ef482613a36565b604082019050919050565b6000612f0c602883613419565b9150612f1782613a85565b604082019050919050565b6000612f2f602183613419565b9150612f3a82613ad4565b604082019050919050565b612f4e816134ea565b82525050565b612f5d816134ea565b82525050565b6000602082019050612f786000830184612c6d565b92915050565b600060a082019050612f936000830188612c6d565b612fa06020830187612c6d565b8181036040830152612fb28186612c7c565b90508181036060830152612fc68185612c7c565b90508181036080830152612fda8184612ce9565b90509695505050505050565b600060a082019050612ffb6000830188612c6d565b6130086020830187612c6d565b6130156040830186612f54565b6130226060830185612f54565b81810360808301526130348184612ce9565b90509695505050505050565b6000602082019050818103600083015261305a8184612c7c565b905092915050565b6000604082019050818103600083015261307c8185612c7c565b905081810360208301526130908184612c7c565b90509392505050565b60006020820190506130ae6000830184612cda565b92915050565b600060208201905081810360008301526130ce8184612d22565b905092915050565b600060208201905081810360008301526130ef81612d5b565b9050919050565b6000602082019050818103600083015261310f81612d7e565b9050919050565b6000602082019050818103600083015261312f81612da1565b9050919050565b6000602082019050818103600083015261314f81612dc4565b9050919050565b6000602082019050818103600083015261316f81612de7565b9050919050565b6000602082019050818103600083015261318f81612e0a565b9050919050565b600060208201905081810360008301526131af81612e2d565b9050919050565b600060208201905081810360008301526131cf81612e50565b9050919050565b600060208201905081810360008301526131ef81612e73565b9050919050565b6000602082019050818103600083015261320f81612e96565b9050919050565b6000602082019050818103600083015261322f81612eb9565b9050919050565b6000602082019050818103600083015261324f81612edc565b9050919050565b6000602082019050818103600083015261326f81612eff565b9050919050565b6000602082019050818103600083015261328f81612f22565b9050919050565b60006020820190506132ab6000830184612f54565b92915050565b60006040820190506132c66000830185612f54565b6132d36020830184612f54565b9392505050565b60006132e46132f5565b90506132f08282613568565b919050565b6000604051905090565b600067ffffffffffffffff82111561331a5761331961366f565b5b602082029050602081019050919050565b600067ffffffffffffffff8211156133465761334561366f565b5b602082029050602081019050919050565b600067ffffffffffffffff8211156133725761337161366f565b5b61337b826136d9565b9050602081019050919050565b600067ffffffffffffffff8211156133a3576133a261366f565b5b6133ac826136d9565b9050602081019050919050565b6000819050602082019050919050565b600081519050919050565b600081519050919050565b600081519050919050565b6000602082019050919050565b600082825260208201905092915050565b600082825260208201905092915050565b600082825260208201905092915050565b6000613435826134ea565b9150613440836134ea565b9250827fffffffffffffffffffffffffffffffffffffffffffffffffffffffffffffffff03821115613475576134746135e2565b5b828201905092915050565b600061348b826134ca565b9050919050565b60008115159050919050565b60007fffffffff0000000000000000000000000000000000000000000000000000000082169050919050565b600073ffffffffffffffffffffffffffffffffffffffff82169050919050565b6000819050919050565b82818337600083830152505050565b60005b83811015613521578082015181840152602081019050613506565b83811115613530576000848401525b50505050565b6000600282049050600182168061354e57607f821691505b6020821081141561356257613561613611565b5b50919050565b613571826136d9565b810181811067ffffffffffffffff821117156135905761358f61366f565b5b80604052505050565b60006135a4826134ea565b91507fffffffffffffffffffffffffffffffffffffffffffffffffffffffffffffffff8214156135d7576135d66135e2565b5b600182019050919050565b7f4e487b7100000000000000000000000000000000000000000000000000000000600052601160045260246000fd5b7f4e487b7100000000000000000000000000000000000000000000000000000000600052602260045260246000fd5b7f4e487b7100000000000000000000000000000000000000000000000000000000600052603260045260246000fd5b7f4e487b7100000000000000000000000000000000000000000000000000000000600052604160045260246000fd5b600060033d11156136bd5760046000803e6136ba6000516136ea565b90505b90565b600080fd5b600080fd5b600080fd5b600080fd5b600080fd5b6000601f19601f8301169050919050565b60008160e01c9050919050565b7f455243313135353a207472616e7366657220746f206e6f6e204552433131353560008201527f526563656976657220696d706c656d656e746572000000000000000000000000602082015250565b7f455243313135353a2063616c6c6572206973206e6f7420746f6b656e206f776e60008201527f6572206e6f7220617070726f7665640000000000000000000000000000000000602082015250565b7f455243313135353a204552433131353552656365697665722072656a6563746560008201527f6420746f6b656e73000000000000000000000000000000000000000000000000602082015250565b7f4f776e61626c653a206e6577206f776e657220697320746865207a65726f206160008201527f6464726573730000000000000000000000000000000000000000000000000000602082015250565b7f455243313135353a206275726e20616d6f756e7420657863656564732062616c60008201527f616e636500000000000000000000000000000000000000000000000000000000602082015250565b7f455243313135353a2061646472657373207a65726f206973206e6f742061207660008201527f616c6964206f776e657200000000000000000000000000000000000000000000602082015250565b7f455243313135353a207472616e7366657220746f20746865207a65726f20616460008201527f6472657373000000000000000000000000000000000000000000000000000000602082015250565b7f455243313135353a206275726e2066726f6d20746865207a65726f206164647260008201527f6573730000000000000000000000000000000000000000000000000000000000602082015250565b7f455243313135353a20696e73756666696369656e742062616c616e636520666f60008201527f72207472616e7366657200000000000000000000000000000000000000000000602082015250565b7f4f776e61626c653a2063616c6c6572206973206e6f7420746865206f776e6572600082015250565b7f455243313135353a2073657474696e6720617070726f76616c2073746174757360008201527f20666f722073656c660000000000000000000000000000000000000000000000602082015250565b7f455243313135353a206163636f756e747320616e6420696473206c656e67746860008201527f206d69736d617463680000000000000000000000000000000000000000000000602082015250565b7f455243313135353a2069647320616e6420616d6f756e7473206c656e6774682060008201527f6d69736d61746368000000000000000000000000000000000000000000000000602082015250565b7f455243313135353a206d696e7420746f20746865207a65726f2061646472657360008201527f7300000000000000000000000000000000000000000000000000000000000000602082015250565b600060443d1015613b3357613bb6565b613b3b6132f5565b60043d036004823e80513d602482011167ffffffffffffffff82111715613b63575050613bb6565b808201805167ffffffffffffffff811115613b815750505050613bb6565b80602083010160043d038501811115613b9e575050505050613bb6565b613bad82602001850186613568565b82955050505050505b90565b613bc281613480565b8114613bcd57600080fd5b50565b613bd981613492565b8114613be457600080fd5b50565b613bf08161349e565b8114613bfb57600080fd5b50565b613c07816134ea565b8114613c1257600080fd5b5056fea264697066735822122073b9056e03f239b451a813aca4223fb0f3946fbd767e03bbbf572f09f83d512464736f6c63430008070033",
  "immutableReferences": {},
  "source": "\r\n// SPDX-License-Identifier: MIT\r\n\r\n\r\n\r\n\r\npragma solidity ^0.8.0;\r\n\r\n/**\r\n * @dev Provides information about the current execution context, including the\r\n * sender of the transaction and its data. While these are generally available\r\n * via msg.sender and msg.data, they should not be accessed in such a direct\r\n * manner, since when dealing with meta-transactions the account sending and\r\n * paying for execution may not be the actual sender (as far as an application\r\n * is concerned).\r\n *\r\n * This contract is only required for intermediate, library-like contracts.\r\n */\r\nabstract contract Context {\r\n    function _msgSender() internal view virtual returns (address) {\r\n        return msg.sender;\r\n    }\r\n\r\n    function _msgData() internal view virtual returns (bytes calldata) {\r\n        return msg.data;\r\n    }\r\n}\r\n\r\n// File: @openzeppelin/contracts/access/Ownable.sol\r\n\r\n\r\n// OpenZeppelin Contracts (last updated v4.7.0) (access/Ownable.sol)\r\n\r\npragma solidity ^0.8.0;\r\n\r\n\r\n/**\r\n * @dev Contract module which provides a basic access control mechanism, where\r\n * there is an account (an owner) that can be granted exclusive access to\r\n * specific functions.\r\n *\r\n * By default, the owner account will be the one that deploys the contract. This\r\n * can later be changed with {transferOwnership}.\r\n *\r\n * This module is used through inheritance. It will make available the modifier\r\n * `onlyOwner`, which can be applied to your functions to restrict their use to\r\n * the owner.\r\n */\r\nabstract contract Ownable is Context {\r\n    address private _owner;\r\n\r\n    event OwnershipTransferred(address indexed previousOwner, address indexed newOwner);\r\n\r\n    /**\r\n     * @dev Initializes the contract setting the deployer as the initial owner.\r\n     */\r\n    constructor() {\r\n        _transferOwnership(_msgSender());\r\n    }\r\n\r\n    /**\r\n     * @dev Throws if called by any account other than the owner.\r\n     */\r\n    modifier onlyOwner() {\r\n        _checkOwner();\r\n        _;\r\n    }\r\n\r\n    /**\r\n     * @dev Returns the address of the current owner.\r\n     */\r\n    function owner() public view virtual returns (address) {\r\n        return _owner;\r\n    }\r\n\r\n    /**\r\n     * @dev Throws if the sender is not the owner.\r\n     */\r\n    function _checkOwner() internal view virtual {\r\n        require(owner() == _msgSender(), \"Ownable: caller is not the owner\");\r\n    }\r\n\r\n    /**\r\n     * @dev Leaves the contract without owner. It will not be possible to call\r\n     * `onlyOwner` functions anymore. Can only be called by the current owner.\r\n     *\r\n     * NOTE: Renouncing ownership will leave the contract without an owner,\r\n     * thereby removing any functionality that is only available to the owner.\r\n     */\r\n    function renounceOwnership() public virtual onlyOwner {\r\n        _transferOwnership(address(0));\r\n    }\r\n\r\n    /**\r\n     * @dev Transfers ownership of the contract to a new account (`newOwner`).\r\n     * Can only be called by the current owner.\r\n     */\r\n    function transferOwnership(address newOwner) public virtual onlyOwner {\r\n        require(newOwner != address(0), \"Ownable: new owner is the zero address\");\r\n        _transferOwnership(newOwner);\r\n    }\r\n\r\n    /**\r\n     * @dev Transfers ownership of the contract to a new account (`newOwner`).\r\n     * Internal function without access restriction.\r\n     */\r\n    function _transferOwnership(address newOwner) internal virtual {\r\n        address oldOwner = _owner;\r\n        _owner = newOwner;\r\n        emit OwnershipTransferred(oldOwner, newOwner);\r\n    }\r\n}\r\n\r\n// File: @openzeppelin/contracts/utils/Address.sol\r\n\r\n\r\n// OpenZeppelin Contracts (last updated v4.7.0) (utils/Address.sol)\r\n\r\npragma solidity ^0.8.1;\r\n\r\n/**\r\n * @dev Collection of functions related to the address type\r\n */\r\nlibrary Address {\r\n    /**\r\n     * @dev Returns true if `account` is a contract.\r\n     *\r\n     * [IMPORTANT]\r\n     * ====\r\n     * It is unsafe to assume that an address for which this function returns\r\n     * false is an externally-owned account (EOA) and not a contract.\r\n     *\r\n     * Among others, `isContract` will return false for the following\r\n     * types of addresses:\r\n     *\r\n     *  - an externally-owned account\r\n     *  - a contract in construction\r\n     *  - an address where a contract will be created\r\n     *  - an address where a contract lived, but was destroyed\r\n     * ====\r\n     *\r\n     * [IMPORTANT]\r\n     * ====\r\n     * You shouldn't rely on `isContract` to protect against flash loan attacks!\r\n     *\r\n     * Preventing calls from contracts is highly discouraged. It breaks composability, breaks support for smart wallets\r\n     * like Gnosis Safe, and does not provide security since it can be circumvented by calling from a contract\r\n     * constructor.\r\n     * ====\r\n     */\r\n    function isContract(address account) internal view returns (bool) {\r\n        // This method relies on extcodesize/address.code.length, which returns 0\r\n        // for contracts in construction, since the code is only stored at the end\r\n        // of the constructor execution.\r\n\r\n        return account.code.length > 0;\r\n    }\r\n\r\n    /**\r\n     * @dev Replacement for Solidity's `transfer`: sends `amount` wei to\r\n     * `recipient`, forwarding all available gas and reverting on errors.\r\n     *\r\n     * https://eips.ethereum.org/EIPS/eip-1884[EIP1884] increases the gas cost\r\n     * of certain opcodes, possibly making contracts go over the 2300 gas limit\r\n     * imposed by `transfer`, making them unable to receive funds via\r\n     * `transfer`. {sendValue} removes this limitation.\r\n     *\r\n     * https://diligence.consensys.net/posts/2019/09/stop-using-soliditys-transfer-now/[Learn more].\r\n     *\r\n     * IMPORTANT: because control is transferred to `recipient`, care must be\r\n     * taken to not create reentrancy vulnerabilities. Consider using\r\n     * {ReentrancyGuard} or the\r\n     * https://solidity.readthedocs.io/en/v0.5.11/security-considerations.html#use-the-checks-effects-interactions-pattern[checks-effects-interactions pattern].\r\n     */\r\n    function sendValue(address payable recipient, uint256 amount) internal {\r\n        require(address(this).balance >= amount, \"Address: insufficient balance\");\r\n\r\n        (bool success, ) = recipient.call{value: amount}(\"\");\r\n        require(success, \"Address: unable to send value, recipient may have reverted\");\r\n    }\r\n\r\n    /**\r\n     * @dev Performs a Solidity function call using a low level `call`. A\r\n     * plain `call` is an unsafe replacement for a function call: use this\r\n     * function instead.\r\n     *\r\n     * If `target` reverts with a revert reason, it is bubbled up by this\r\n     * function (like regular Solidity function calls).\r\n     *\r\n     * Returns the raw returned data. To convert to the expected return value,\r\n     * use https://solidity.readthedocs.io/en/latest/units-and-global-variables.html?highlight=abi.decode#abi-encoding-and-decoding-functions[`abi.decode`].\r\n     *\r\n     * Requirements:\r\n     *\r\n     * - `target` must be a contract.\r\n     * - calling `target` with `data` must not revert.\r\n     *\r\n     * _Available since v3.1._\r\n     */\r\n    function functionCall(address target, bytes memory data) internal returns (bytes memory) {\r\n        return functionCall(target, data, \"Address: low-level call failed\");\r\n    }\r\n\r\n    /**\r\n     * @dev Same as {xref-Address-functionCall-address-bytes-}[`functionCall`], but with\r\n     * `errorMessage` as a fallback revert reason when `target` reverts.\r\n     *\r\n     * _Available since v3.1._\r\n     */\r\n    function functionCall(\r\n        address target,\r\n        bytes memory data,\r\n        string memory errorMessage\r\n    ) internal returns (bytes memory) {\r\n        return functionCallWithValue(target, data, 0, errorMessage);\r\n    }\r\n\r\n    /**\r\n     * @dev Same as {xref-Address-functionCall-address-bytes-}[`functionCall`],\r\n     * but also transferring `value` wei to `target`.\r\n     *\r\n     * Requirements:\r\n     *\r\n     * - the calling contract must have an ETH balance of at least `value`.\r\n     * - the called Solidity function must be `payable`.\r\n     *\r\n     * _Available since v3.1._\r\n     */\r\n    function functionCallWithValue(\r\n        address target,\r\n        bytes memory data,\r\n        uint256 value\r\n    ) internal returns (bytes memory) {\r\n        return functionCallWithValue(target, data, value, \"Address: low-level call with value failed\");\r\n    }\r\n\r\n    /**\r\n     * @dev Same as {xref-Address-functionCallWithValue-address-bytes-uint256-}[`functionCallWithValue`], but\r\n     * with `errorMessage` as a fallback revert reason when `target` reverts.\r\n     *\r\n     * _Available since v3.1._\r\n     */\r\n    function functionCallWithValue(\r\n        address target,\r\n        bytes memory data,\r\n        uint256 value,\r\n        string memory errorMessage\r\n    ) internal returns (bytes memory) {\r\n        require(address(this).balance >= value, \"Address: insufficient balance for call\");\r\n        require(isContract(target), \"Address: call to non-contract\");\r\n\r\n        (bool success, bytes memory returndata) = target.call{value: value}(data);\r\n        return verifyCallResult(success, returndata, errorMessage);\r\n    }\r\n\r\n    /**\r\n     * @dev Same as {xref-Address-functionCall-address-bytes-}[`functionCall`],\r\n     * but performing a static call.\r\n     *\r\n     * _Available since v3.3._\r\n     */\r\n    function functionStaticCall(address target, bytes memory data) internal view returns (bytes memory) {\r\n        return functionStaticCall(target, data, \"Address: low-level static call failed\");\r\n    }\r\n\r\n    /**\r\n     * @dev Same as {xref-Address-functionCall-address-bytes-string-}[`functionCall`],\r\n     * but performing a static call.\r\n     *\r\n     * _Available since v3.3._\r\n     */\r\n    function functionStaticCall(\r\n        address target,\r\n        bytes memory data,\r\n        string memory errorMessage\r\n    ) internal view returns (bytes memory) {\r\n        require(isContract(target), \"Address: static call to non-contract\");\r\n\r\n        (bool success, bytes memory returndata) = target.staticcall(data);\r\n        return verifyCallResult(success, returndata, errorMessage);\r\n    }\r\n\r\n    /**\r\n     * @dev Same as {xref-Address-functionCall-address-bytes-}[`functionCall`],\r\n     * but performing a delegate call.\r\n     *\r\n     * _Available since v3.4._\r\n     */\r\n    function functionDelegateCall(address target, bytes memory data) internal returns (bytes memory) {\r\n        return functionDelegateCall(target, data, \"Address: low-level delegate call failed\");\r\n    }\r\n\r\n    /**\r\n     * @dev Same as {xref-Address-functionCall-address-bytes-string-}[`functionCall`],\r\n     * but performing a delegate call.\r\n     *\r\n     * _Available since v3.4._\r\n     */\r\n    function functionDelegateCall(\r\n        address target,\r\n        bytes memory data,\r\n        string memory errorMessage\r\n    ) internal returns (bytes memory) {\r\n        require(isContract(target), \"Address: delegate call to non-contract\");\r\n\r\n        (bool success, bytes memory returndata) = target.delegatecall(data);\r\n        return verifyCallResult(success, returndata, errorMessage);\r\n    }\r\n\r\n    /**\r\n     * @dev Tool to verifies that a low level call was successful, and revert if it wasn't, either by bubbling the\r\n     * revert reason using the provided one.\r\n     *\r\n     * _Available since v4.3._\r\n     */\r\n    function verifyCallResult(\r\n        bool success,\r\n        bytes memory returndata,\r\n        string memory errorMessage\r\n    ) internal pure returns (bytes memory) {\r\n        if (success) {\r\n            return returndata;\r\n        } else {\r\n            // Look for revert reason and bubble it up if present\r\n            if (returndata.length > 0) {\r\n                // The easiest way to bubble the revert reason is using memory via assembly\r\n                /// @solidity memory-safe-assembly\r\n                assembly {\r\n                    let returndata_size := mload(returndata)\r\n                    revert(add(32, returndata), returndata_size)\r\n                }\r\n            } else {\r\n                revert(errorMessage);\r\n            }\r\n        }\r\n    }\r\n}\r\n\r\n// File: @openzeppelin/contracts/utils/introspection/IERC165.sol\r\n\r\n\r\n// OpenZeppelin Contracts v4.4.1 (utils/introspection/IERC165.sol)\r\n\r\npragma solidity ^0.8.0;\r\n\r\n/**\r\n * @dev Interface of the ERC165 standard, as defined in the\r\n * https://eips.ethereum.org/EIPS/eip-165[EIP].\r\n *\r\n * Implementers can declare support of contract interfaces, which can then be\r\n * queried by others ({ERC165Checker}).\r\n *\r\n * For an implementation, see {ERC165}.\r\n */\r\ninterface IERC165 {\r\n    /**\r\n     * @dev Returns true if this contract implements the interface defined by\r\n     * `interfaceId`. See the corresponding\r\n     * https://eips.ethereum.org/EIPS/eip-165#how-interfaces-are-identified[EIP section]\r\n     * to learn more about how these ids are created.\r\n     *\r\n     * This function call must use less than 30 000 gas.\r\n     */\r\n    function supportsInterface(bytes4 interfaceId) external view returns (bool);\r\n}\r\n\r\n// File: @openzeppelin/contracts/utils/introspection/ERC165.sol\r\n\r\n\r\n// OpenZeppelin Contracts v4.4.1 (utils/introspection/ERC165.sol)\r\n\r\npragma solidity ^0.8.0;\r\n\r\n\r\n/**\r\n * @dev Implementation of the {IERC165} interface.\r\n *\r\n * Contracts that want to implement ERC165 should inherit from this contract and override {supportsInterface} to check\r\n * for the additional interface id that will be supported. For example:\r\n *\r\n * ```solidity\r\n * function supportsInterface(bytes4 interfaceId) public view virtual override returns (bool) {\r\n *     return interfaceId == type(MyInterface).interfaceId || super.supportsInterface(interfaceId);\r\n * }\r\n * ```\r\n *\r\n * Alternatively, {ERC165Storage} provides an easier to use but more expensive implementation.\r\n */\r\nabstract contract ERC165 is IERC165 {\r\n    /**\r\n     * @dev See {IERC165-supportsInterface}.\r\n     */\r\n    function supportsInterface(bytes4 interfaceId) public view virtual override returns (bool) {\r\n        return interfaceId == type(IERC165).interfaceId;\r\n    }\r\n}\r\n\r\n// File: @openzeppelin/contracts/token/ERC1155/IERC1155Receiver.sol\r\n\r\n\r\n// OpenZeppelin Contracts (last updated v4.5.0) (token/ERC1155/IERC1155Receiver.sol)\r\n\r\npragma solidity ^0.8.0;\r\n\r\n\r\n/**\r\n * @dev _Available since v3.1._\r\n */\r\ninterface IERC1155Receiver is IERC165 {\r\n    /**\r\n     * @dev Handles the receipt of a single ERC1155 token type. This function is\r\n     * called at the end of a `safeTransferFrom` after the balance has been updated.\r\n     *\r\n     * NOTE: To accept the transfer, this must return\r\n     * `bytes4(keccak256(\"onERC1155Received(address,address,uint256,uint256,bytes)\"))`\r\n     * (i.e. 0xf23a6e61, or its own function selector).\r\n     *\r\n     * @param operator The address which initiated the transfer (i.e. msg.sender)\r\n     * @param from The address which previously owned the token\r\n     * @param id The ID of the token being transferred\r\n     * @param value The amount of tokens being transferred\r\n     * @param data Additional data with no specified format\r\n     * @return `bytes4(keccak256(\"onERC1155Received(address,address,uint256,uint256,bytes)\"))` if transfer is allowed\r\n     */\r\n    function onERC1155Received(\r\n        address operator,\r\n        address from,\r\n        uint256 id,\r\n        uint256 value,\r\n        bytes calldata data\r\n    ) external returns (bytes4);\r\n\r\n    /**\r\n     * @dev Handles the receipt of a multiple ERC1155 token types. This function\r\n     * is called at the end of a `safeBatchTransferFrom` after the balances have\r\n     * been updated.\r\n     *\r\n     * NOTE: To accept the transfer(s), this must return\r\n     * `bytes4(keccak256(\"onERC1155BatchReceived(address,address,uint256[],uint256[],bytes)\"))`\r\n     * (i.e. 0xbc197c81, or its own function selector).\r\n     *\r\n     * @param operator The address which initiated the batch transfer (i.e. msg.sender)\r\n     * @param from The address which previously owned the token\r\n     * @param ids An array containing ids of each token being transferred (order and length must match values array)\r\n     * @param values An array containing amounts of each token being transferred (order and length must match ids array)\r\n     * @param data Additional data with no specified format\r\n     * @return `bytes4(keccak256(\"onERC1155BatchReceived(address,address,uint256[],uint256[],bytes)\"))` if transfer is allowed\r\n     */\r\n    function onERC1155BatchReceived(\r\n        address operator,\r\n        address from,\r\n        uint256[] calldata ids,\r\n        uint256[] calldata values,\r\n        bytes calldata data\r\n    ) external returns (bytes4);\r\n}\r\n\r\n// File: @openzeppelin/contracts/token/ERC1155/IERC1155.sol\r\n\r\n\r\n// OpenZeppelin Contracts (last updated v4.7.0) (token/ERC1155/IERC1155.sol)\r\n\r\npragma solidity ^0.8.0;\r\n\r\n\r\n/**\r\n * @dev Required interface of an ERC1155 compliant contract, as defined in the\r\n * https://eips.ethereum.org/EIPS/eip-1155[EIP].\r\n *\r\n * _Available since v3.1._\r\n */\r\ninterface IERC1155 is IERC165 {\r\n    /**\r\n     * @dev Emitted when `value` tokens of token type `id` are transferred from `from` to `to` by `operator`.\r\n     */\r\n    event TransferSingle(address indexed operator, address indexed from, address indexed to, uint256 id, uint256 value);\r\n\r\n    /**\r\n     * @dev Equivalent to multiple {TransferSingle} events, where `operator`, `from` and `to` are the same for all\r\n     * transfers.\r\n     */\r\n    event TransferBatch(\r\n        address indexed operator,\r\n        address indexed from,\r\n        address indexed to,\r\n        uint256[] ids,\r\n        uint256[] values\r\n    );\r\n\r\n    /**\r\n     * @dev Emitted when `account` grants or revokes permission to `operator` to transfer their tokens, according to\r\n     * `approved`.\r\n     */\r\n    event ApprovalForAll(address indexed account, address indexed operator, bool approved);\r\n\r\n    /**\r\n     * @dev Emitted when the URI for token type `id` changes to `value`, if it is a non-programmatic URI.\r\n     *\r\n     * If an {URI} event was emitted for `id`, the standard\r\n     * https://eips.ethereum.org/EIPS/eip-1155#metadata-extensions[guarantees] that `value` will equal the value\r\n     * returned by {IERC1155MetadataURI-uri}.\r\n     */\r\n    event URI(string value, uint256 indexed id);\r\n\r\n    /**\r\n     * @dev Returns the amount of tokens of token type `id` owned by `account`.\r\n     *\r\n     * Requirements:\r\n     *\r\n     * - `account` cannot be the zero address.\r\n     */\r\n    function balanceOf(address account, uint256 id) external view returns (uint256);\r\n\r\n    /**\r\n     * @dev xref:ROOT:erc1155.adoc#batch-operations[Batched] version of {balanceOf}.\r\n     *\r\n     * Requirements:\r\n     *\r\n     * - `accounts` and `ids` must have the same length.\r\n     */\r\n    function balanceOfBatch(address[] calldata accounts, uint256[] calldata ids)\r\n        external\r\n        view\r\n        returns (uint256[] memory);\r\n\r\n    /**\r\n     * @dev Grants or revokes permission to `operator` to transfer the caller's tokens, according to `approved`,\r\n     *\r\n     * Emits an {ApprovalForAll} event.\r\n     *\r\n     * Requirements:\r\n     *\r\n     * - `operator` cannot be the caller.\r\n     */\r\n    function setApprovalForAll(address operator, bool approved) external;\r\n\r\n    /**\r\n     * @dev Returns true if `operator` is approved to transfer ``account``'s tokens.\r\n     *\r\n     * See {setApprovalForAll}.\r\n     */\r\n    function isApprovedForAll(address account, address operator) external view returns (bool);\r\n\r\n    /**\r\n     * @dev Transfers `amount` tokens of token type `id` from `from` to `to`.\r\n     *\r\n     * Emits a {TransferSingle} event.\r\n     *\r\n     * Requirements:\r\n     *\r\n     * - `to` cannot be the zero address.\r\n     * - If the caller is not `from`, it must have been approved to spend ``from``'s tokens via {setApprovalForAll}.\r\n     * - `from` must have a balance of tokens of type `id` of at least `amount`.\r\n     * - If `to` refers to a smart contract, it must implement {IERC1155Receiver-onERC1155Received} and return the\r\n     * acceptance magic value.\r\n     */\r\n    function safeTransferFrom(\r\n        address from,\r\n        address to,\r\n        uint256 id,\r\n        uint256 amount,\r\n        bytes calldata data\r\n    ) external;\r\n\r\n    /**\r\n     * @dev xref:ROOT:erc1155.adoc#batch-operations[Batched] version of {safeTransferFrom}.\r\n     *\r\n     * Emits a {TransferBatch} event.\r\n     *\r\n     * Requirements:\r\n     *\r\n     * - `ids` and `amounts` must have the same length.\r\n     * - If `to` refers to a smart contract, it must implement {IERC1155Receiver-onERC1155BatchReceived} and return the\r\n     * acceptance magic value.\r\n     */\r\n    function safeBatchTransferFrom(\r\n        address from,\r\n        address to,\r\n        uint256[] calldata ids,\r\n        uint256[] calldata amounts,\r\n        bytes calldata data\r\n    ) external;\r\n}\r\n\r\n// File: @openzeppelin/contracts/token/ERC1155/extensions/IERC1155MetadataURI.sol\r\n\r\n\r\n// OpenZeppelin Contracts v4.4.1 (token/ERC1155/extensions/IERC1155MetadataURI.sol)\r\n\r\npragma solidity ^0.8.0;\r\n\r\n\r\n/**\r\n * @dev Interface of the optional ERC1155MetadataExtension interface, as defined\r\n * in the https://eips.ethereum.org/EIPS/eip-1155#metadata-extensions[EIP].\r\n *\r\n * _Available since v3.1._\r\n */\r\ninterface IERC1155MetadataURI is IERC1155 {\r\n    /**\r\n     * @dev Returns the URI for token type `id`.\r\n     *\r\n     * If the `\\{id\\}` substring is present in the URI, it must be replaced by\r\n     * clients with the actual token type ID.\r\n     */\r\n    function uri(uint256 id) external view returns (string memory);\r\n}\r\n\r\n// File: @openzeppelin/contracts/token/ERC1155/ERC1155.sol\r\n\r\n\r\n// OpenZeppelin Contracts (last updated v4.7.0) (token/ERC1155/ERC1155.sol)\r\n\r\npragma solidity ^0.8.0;\r\n\r\n\r\n\r\n\r\n\r\n\r\n\r\n/**\r\n * @dev Implementation of the basic standard multi-token.\r\n * See https://eips.ethereum.org/EIPS/eip-1155\r\n * Originally based on code by Enjin: https://github.com/enjin/erc-1155\r\n *\r\n * _Available since v3.1._\r\n */\r\ncontract ERC1155 is Context, ERC165, IERC1155, IERC1155MetadataURI {\r\n    using Address for address;\r\n\r\n    // Mapping from token ID to account balances\r\n    mapping(uint256 => mapping(address => uint256)) private _balances;\r\n\r\n    // Mapping from account to operator approvals\r\n    mapping(address => mapping(address => bool)) private _operatorApprovals;\r\n\r\n    // Used as the URI for all token types by relying on ID substitution, e.g. https://token-cdn-domain/{id}.json\r\n    string private _uri;\r\n\r\n    /**\r\n     * @dev See {_setURI}.\r\n     */\r\n    constructor(string memory uri_) {\r\n        _setURI(uri_);\r\n    }\r\n\r\n    /**\r\n     * @dev See {IERC165-supportsInterface}.\r\n     */\r\n    function supportsInterface(bytes4 interfaceId) public view virtual override(ERC165, IERC165) returns (bool) {\r\n        return\r\n            interfaceId == type(IERC1155).interfaceId ||\r\n            interfaceId == type(IERC1155MetadataURI).interfaceId ||\r\n            super.supportsInterface(interfaceId);\r\n    }\r\n\r\n    /**\r\n     * @dev See {IERC1155MetadataURI-uri}.\r\n     *\r\n     * This implementation returns the same URI for *all* token types. It relies\r\n     * on the token type ID substitution mechanism\r\n     * https://eips.ethereum.org/EIPS/eip-1155#metadata[defined in the EIP].\r\n     *\r\n     * Clients calling this function must replace the `\\{id\\}` substring with the\r\n     * actual token type ID.\r\n     */\r\n    function uri(uint256) public view virtual override returns (string memory) {\r\n        return _uri;\r\n    }\r\n\r\n    /**\r\n     * @dev See {IERC1155-balanceOf}.\r\n     *\r\n     * Requirements:\r\n     *\r\n     * - `account` cannot be the zero address.\r\n     */\r\n    function balanceOf(address account, uint256 id) public view virtual override returns (uint256) {\r\n        require(account != address(0), \"ERC1155: address zero is not a valid owner\");\r\n        return _balances[id][account];\r\n    }\r\n\r\n    /**\r\n     * @dev See {IERC1155-balanceOfBatch}.\r\n     *\r\n     * Requirements:\r\n     *\r\n     * - `accounts` and `ids` must have the same length.\r\n     */\r\n    function balanceOfBatch(address[] memory accounts, uint256[] memory ids)\r\n        public\r\n        view\r\n        virtual\r\n        override\r\n        returns (uint256[] memory)\r\n    {\r\n        require(accounts.length == ids.length, \"ERC1155: accounts and ids length mismatch\");\r\n\r\n        uint256[] memory batchBalances = new uint256[](accounts.length);\r\n\r\n        for (uint256 i = 0; i < accounts.length; ++i) {\r\n            batchBalances[i] = balanceOf(accounts[i], ids[i]);\r\n        }\r\n\r\n        return batchBalances;\r\n    }\r\n\r\n    /**\r\n     * @dev See {IERC1155-setApprovalForAll}.\r\n     */\r\n    function setApprovalForAll(address operator, bool approved) public virtual override {\r\n        _setApprovalForAll(_msgSender(), operator, approved);\r\n    }\r\n\r\n    /**\r\n     * @dev See {IERC1155-isApprovedForAll}.\r\n     */\r\n    function isApprovedForAll(address account, address operator) public view virtual override returns (bool) {\r\n        return _operatorApprovals[account][operator];\r\n    }\r\n\r\n    /**\r\n     * @dev See {IERC1155-safeTransferFrom}.\r\n     */\r\n    function safeTransferFrom(\r\n        address from,\r\n        address to,\r\n        uint256 id,\r\n        uint256 amount,\r\n        bytes memory data\r\n    ) public virtual override {\r\n        require(\r\n            from == _msgSender() || isApprovedForAll(from, _msgSender()),\r\n            \"ERC1155: caller is not token owner nor approved\"\r\n        );\r\n        _safeTransferFrom(from, to, id, amount, data);\r\n    }\r\n\r\n    /**\r\n     * @dev See {IERC1155-safeBatchTransferFrom}.\r\n     */\r\n    function safeBatchTransferFrom(\r\n        address from,\r\n        address to,\r\n        uint256[] memory ids,\r\n        uint256[] memory amounts,\r\n        bytes memory data\r\n    ) public virtual override {\r\n        require(\r\n            from == _msgSender() || isApprovedForAll(from, _msgSender()),\r\n            \"ERC1155: caller is not token owner nor approved\"\r\n        );\r\n        _safeBatchTransferFrom(from, to, ids, amounts, data);\r\n    }\r\n\r\n    /**\r\n     * @dev Transfers `amount` tokens of token type `id` from `from` to `to`.\r\n     *\r\n     * Emits a {TransferSingle} event.\r\n     *\r\n     * Requirements:\r\n     *\r\n     * - `to` cannot be the zero address.\r\n     * - `from` must have a balance of tokens of type `id` of at least `amount`.\r\n     * - If `to` refers to a smart contract, it must implement {IERC1155Receiver-onERC1155Received} and return the\r\n     * acceptance magic value.\r\n     */\r\n    function _safeTransferFrom(\r\n        address from,\r\n        address to,\r\n        uint256 id,\r\n        uint256 amount,\r\n        bytes memory data\r\n    ) internal virtual {\r\n        require(to != address(0), \"ERC1155: transfer to the zero address\");\r\n\r\n        address operator = _msgSender();\r\n        uint256[] memory ids = _asSingletonArray(id);\r\n        uint256[] memory amounts = _asSingletonArray(amount);\r\n\r\n        _beforeTokenTransfer(operator, from, to, ids, amounts, data);\r\n\r\n        uint256 fromBalance = _balances[id][from];\r\n        require(fromBalance >= amount, \"ERC1155: insufficient balance for transfer\");\r\n        unchecked {\r\n            _balances[id][from] = fromBalance - amount;\r\n        }\r\n        _balances[id][to] += amount;\r\n\r\n        emit TransferSingle(operator, from, to, id, amount);\r\n\r\n        _afterTokenTransfer(operator, from, to, ids, amounts, data);\r\n\r\n        _doSafeTransferAcceptanceCheck(operator, from, to, id, amount, data);\r\n    }\r\n\r\n    /**\r\n     * @dev xref:ROOT:erc1155.adoc#batch-operations[Batched] version of {_safeTransferFrom}.\r\n     *\r\n     * Emits a {TransferBatch} event.\r\n     *\r\n     * Requirements:\r\n     *\r\n     * - If `to` refers to a smart contract, it must implement {IERC1155Receiver-onERC1155BatchReceived} and return the\r\n     * acceptance magic value.\r\n     */\r\n    function _safeBatchTransferFrom(\r\n        address from,\r\n        address to,\r\n        uint256[] memory ids,\r\n        uint256[] memory amounts,\r\n        bytes memory data\r\n    ) internal virtual {\r\n        require(ids.length == amounts.length, \"ERC1155: ids and amounts length mismatch\");\r\n        require(to != address(0), \"ERC1155: transfer to the zero address\");\r\n\r\n        address operator = _msgSender();\r\n\r\n        _beforeTokenTransfer(operator, from, to, ids, amounts, data);\r\n\r\n        for (uint256 i = 0; i < ids.length; ++i) {\r\n            uint256 id = ids[i];\r\n            uint256 amount = amounts[i];\r\n\r\n            uint256 fromBalance = _balances[id][from];\r\n            require(fromBalance >= amount, \"ERC1155: insufficient balance for transfer\");\r\n            unchecked {\r\n                _balances[id][from] = fromBalance - amount;\r\n            }\r\n            _balances[id][to] += amount;\r\n        }\r\n\r\n        emit TransferBatch(operator, from, to, ids, amounts);\r\n\r\n        _afterTokenTransfer(operator, from, to, ids, amounts, data);\r\n\r\n        _doSafeBatchTransferAcceptanceCheck(operator, from, to, ids, amounts, data);\r\n    }\r\n\r\n    /**\r\n     * @dev Sets a new URI for all token types, by relying on the token type ID\r\n     * substitution mechanism\r\n     * https://eips.ethereum.org/EIPS/eip-1155#metadata[defined in the EIP].\r\n     *\r\n     * By this mechanism, any occurrence of the `\\{id\\}` substring in either the\r\n     * URI or any of the amounts in the JSON file at said URI will be replaced by\r\n     * clients with the token type ID.\r\n     *\r\n     * For example, the `https://token-cdn-domain/\\{id\\}.json` URI would be\r\n     * interpreted by clients as\r\n     * `https://token-cdn-domain/000000000000000000000000000000000000000000000000000000000004cce0.json`\r\n     * for token type ID 0x4cce0.\r\n     *\r\n     * See {uri}.\r\n     *\r\n     * Because these URIs cannot be meaningfully represented by the {URI} event,\r\n     * this function emits no events.\r\n     */\r\n    function _setURI(string memory newuri) internal virtual {\r\n        _uri = newuri;\r\n    }\r\n\r\n    /**\r\n     * @dev Creates `amount` tokens of token type `id`, and assigns them to `to`.\r\n     *\r\n     * Emits a {TransferSingle} event.\r\n     *\r\n     * Requirements:\r\n     *\r\n     * - `to` cannot be the zero address.\r\n     * - If `to` refers to a smart contract, it must implement {IERC1155Receiver-onERC1155Received} and return the\r\n     * acceptance magic value.\r\n     */\r\n    function _mint(\r\n        address to,\r\n        uint256 id,\r\n        uint256 amount,\r\n        bytes memory data\r\n    ) internal virtual {\r\n        require(to != address(0), \"ERC1155: mint to the zero address\");\r\n\r\n        address operator = _msgSender();\r\n        uint256[] memory ids = _asSingletonArray(id);\r\n        uint256[] memory amounts = _asSingletonArray(amount);\r\n\r\n        _beforeTokenTransfer(operator, address(0), to, ids, amounts, data);\r\n\r\n        _balances[id][to] += amount;\r\n        emit TransferSingle(operator, address(0), to, id, amount);\r\n\r\n        _afterTokenTransfer(operator, address(0), to, ids, amounts, data);\r\n\r\n        _doSafeTransferAcceptanceCheck(operator, address(0), to, id, amount, data);\r\n    }\r\n\r\n    /**\r\n     * @dev xref:ROOT:erc1155.adoc#batch-operations[Batched] version of {_mint}.\r\n     *\r\n     * Emits a {TransferBatch} event.\r\n     *\r\n     * Requirements:\r\n     *\r\n     * - `ids` and `amounts` must have the same length.\r\n     * - If `to` refers to a smart contract, it must implement {IERC1155Receiver-onERC1155BatchReceived} and return the\r\n     * acceptance magic value.\r\n     */\r\n    function _mintBatch(\r\n        address to,\r\n        uint256[] memory ids,\r\n        uint256[] memory amounts,\r\n        bytes memory data\r\n    ) internal virtual {\r\n        require(to != address(0), \"ERC1155: mint to the zero address\");\r\n        require(ids.length == amounts.length, \"ERC1155: ids and amounts length mismatch\");\r\n\r\n        address operator = _msgSender();\r\n\r\n        _beforeTokenTransfer(operator, address(0), to, ids, amounts, data);\r\n\r\n        for (uint256 i = 0; i < ids.length; i++) {\r\n            _balances[ids[i]][to] += amounts[i];\r\n        }\r\n\r\n        emit TransferBatch(operator, address(0), to, ids, amounts);\r\n\r\n        _afterTokenTransfer(operator, address(0), to, ids, amounts, data);\r\n\r\n        _doSafeBatchTransferAcceptanceCheck(operator, address(0), to, ids, amounts, data);\r\n    }\r\n\r\n    /**\r\n     * @dev Destroys `amount` tokens of token type `id` from `from`\r\n     *\r\n     * Emits a {TransferSingle} event.\r\n     *\r\n     * Requirements:\r\n     *\r\n     * - `from` cannot be the zero address.\r\n     * - `from` must have at least `amount` tokens of token type `id`.\r\n     */\r\n    function _burn(\r\n        address from,\r\n        uint256 id,\r\n        uint256 amount\r\n    ) internal virtual {\r\n        require(from != address(0), \"ERC1155: burn from the zero address\");\r\n\r\n        address operator = _msgSender();\r\n        uint256[] memory ids = _asSingletonArray(id);\r\n        uint256[] memory amounts = _asSingletonArray(amount);\r\n\r\n        _beforeTokenTransfer(operator, from, address(0), ids, amounts, \"\");\r\n\r\n        uint256 fromBalance = _balances[id][from];\r\n        require(fromBalance >= amount, \"ERC1155: burn amount exceeds balance\");\r\n        unchecked {\r\n            _balances[id][from] = fromBalance - amount;\r\n        }\r\n\r\n        emit TransferSingle(operator, from, address(0), id, amount);\r\n\r\n        _afterTokenTransfer(operator, from, address(0), ids, amounts, \"\");\r\n    }\r\n\r\n    /**\r\n     * @dev xref:ROOT:erc1155.adoc#batch-operations[Batched] version of {_burn}.\r\n     *\r\n     * Emits a {TransferBatch} event.\r\n     *\r\n     * Requirements:\r\n     *\r\n     * - `ids` and `amounts` must have the same length.\r\n     */\r\n    function _burnBatch(\r\n        address from,\r\n        uint256[] memory ids,\r\n        uint256[] memory amounts\r\n    ) internal virtual {\r\n        require(from != address(0), \"ERC1155: burn from the zero address\");\r\n        require(ids.length == amounts.length, \"ERC1155: ids and amounts length mismatch\");\r\n\r\n        address operator = _msgSender();\r\n\r\n        _beforeTokenTransfer(operator, from, address(0), ids, amounts, \"\");\r\n\r\n        for (uint256 i = 0; i < ids.length; i++) {\r\n            uint256 id = ids[i];\r\n            uint256 amount = amounts[i];\r\n\r\n            uint256 fromBalance = _balances[id][from];\r\n            require(fromBalance >= amount, \"ERC1155: burn amount exceeds balance\");\r\n            unchecked {\r\n                _balances[id][from] = fromBalance - amount;\r\n            }\r\n        }\r\n\r\n        emit TransferBatch(operator, from, address(0), ids, amounts);\r\n\r\n        _afterTokenTransfer(operator, from, address(0), ids, amounts, \"\");\r\n    }\r\n\r\n    /**\r\n     * @dev Approve `operator` to operate on all of `owner` tokens\r\n     *\r\n     * Emits an {ApprovalForAll} event.\r\n     */\r\n    function _setApprovalForAll(\r\n        address owner,\r\n        address operator,\r\n        bool approved\r\n    ) internal virtual {\r\n        require(owner != operator, \"ERC1155: setting approval status for self\");\r\n        _operatorApprovals[owner][operator] = approved;\r\n        emit ApprovalForAll(owner, operator, approved);\r\n    }\r\n\r\n    /**\r\n     * @dev Hook that is called before any token transfer. This includes minting\r\n     * and burning, as well as batched variants.\r\n     *\r\n     * The same hook is called on both single and batched variants. For single\r\n     * transfers, the length of the `ids` and `amounts` arrays will be 1.\r\n     *\r\n     * Calling conditions (for each `id` and `amount` pair):\r\n     *\r\n     * - When `from` and `to` are both non-zero, `amount` of ``from``'s tokens\r\n     * of token type `id` will be  transferred to `to`.\r\n     * - When `from` is zero, `amount` tokens of token type `id` will be minted\r\n     * for `to`.\r\n     * - when `to` is zero, `amount` of ``from``'s tokens of token type `id`\r\n     * will be burned.\r\n     * - `from` and `to` are never both zero.\r\n     * - `ids` and `amounts` have the same, non-zero length.\r\n     *\r\n     * To learn more about hooks, head to xref:ROOT:extending-contracts.adoc#using-hooks[Using Hooks].\r\n     */\r\n    function _beforeTokenTransfer(\r\n        address operator,\r\n        address from,\r\n        address to,\r\n        uint256[] memory ids,\r\n        uint256[] memory amounts,\r\n        bytes memory data\r\n    ) internal virtual {}\r\n\r\n    /**\r\n     * @dev Hook that is called after any token transfer. This includes minting\r\n     * and burning, as well as batched variants.\r\n     *\r\n     * The same hook is called on both single and batched variants. For single\r\n     * transfers, the length of the `id` and `amount` arrays will be 1.\r\n     *\r\n     * Calling conditions (for each `id` and `amount` pair):\r\n     *\r\n     * - When `from` and `to` are both non-zero, `amount` of ``from``'s tokens\r\n     * of token type `id` will be  transferred to `to`.\r\n     * - When `from` is zero, `amount` tokens of token type `id` will be minted\r\n     * for `to`.\r\n     * - when `to` is zero, `amount` of ``from``'s tokens of token type `id`\r\n     * will be burned.\r\n     * - `from` and `to` are never both zero.\r\n     * - `ids` and `amounts` have the same, non-zero length.\r\n     *\r\n     * To learn more about hooks, head to xref:ROOT:extending-contracts.adoc#using-hooks[Using Hooks].\r\n     */\r\n    function _afterTokenTransfer(\r\n        address operator,\r\n        address from,\r\n        address to,\r\n        uint256[] memory ids,\r\n        uint256[] memory amounts,\r\n        bytes memory data\r\n    ) internal virtual {}\r\n\r\n    function _doSafeTransferAcceptanceCheck(\r\n        address operator,\r\n        address from,\r\n        address to,\r\n        uint256 id,\r\n        uint256 amount,\r\n        bytes memory data\r\n    ) private {\r\n        if (to.isContract()) {\r\n            try IERC1155Receiver(to).onERC1155Received(operator, from, id, amount, data) returns (bytes4 response) {\r\n                if (response != IERC1155Receiver.onERC1155Received.selector) {\r\n                    revert(\"ERC1155: ERC1155Receiver rejected tokens\");\r\n                }\r\n            } catch Error(string memory reason) {\r\n                revert(reason);\r\n            } catch {\r\n                revert(\"ERC1155: transfer to non ERC1155Receiver implementer\");\r\n            }\r\n        }\r\n    }\r\n\r\n    function _doSafeBatchTransferAcceptanceCheck(\r\n        address operator,\r\n        address from,\r\n        address to,\r\n        uint256[] memory ids,\r\n        uint256[] memory amounts,\r\n        bytes memory data\r\n    ) private {\r\n        if (to.isContract()) {\r\n            try IERC1155Receiver(to).onERC1155BatchReceived(operator, from, ids, amounts, data) returns (\r\n                bytes4 response\r\n            ) {\r\n                if (response != IERC1155Receiver.onERC1155BatchReceived.selector) {\r\n                    revert(\"ERC1155: ERC1155Receiver rejected tokens\");\r\n                }\r\n            } catch Error(string memory reason) {\r\n                revert(reason);\r\n            } catch {\r\n                revert(\"ERC1155: transfer to non ERC1155Receiver implementer\");\r\n            }\r\n        }\r\n    }\r\n\r\n    function _asSingletonArray(uint256 element) private pure returns (uint256[] memory) {\r\n        uint256[] memory array = new uint256[](1);\r\n        array[0] = element;\r\n\r\n        return array;\r\n    }\r\n}\r\n\r\n// File: contracts/Pass.sol\r\n\r\n\r\n\r\n// Amended by HashLips\r\n/**\r\n    !Disclaimer!\r\n    \r\n    These contracts have been used to create tutorials,\r\n    and was created for the purpose to teach people\r\n    how to create smart contracts on the blockchain.\r\n    please review this code on your own before using any of\r\n    the following code for production.\r\n    The developer will not be responsible or liable for all loss or \r\n    damage whatsoever caused by you participating in any way in the \r\n    experimental code, whether putting money into the contract or \r\n    using the code for your own project.\r\n*/\r\n\r\npragma solidity ^0.8.0;\r\n\r\n\r\n\r\ncontract Pass is ERC1155, Ownable {\r\n    \r\n  string public name;\r\n  string public symbol;\r\n\r\n  mapping(uint => string) public tokenURI;\r\n\r\n  constructor() ERC1155(\"\") {\r\n    name = \"Solana Delhi Hacker House Pass\";\r\n    symbol =\"PASS\";\r\n  }\r\n\r\n  function mint(address _to, uint _id, uint _amount) external onlyOwner {\r\n    _mint(_to, _id, _amount, \"\");\r\n  }\r\n\r\n  function mintBatch(address _to, uint[] memory _ids, uint[] memory _amounts) external onlyOwner {\r\n    _mintBatch(_to, _ids, _amounts, \"\");\r\n  }\r\n\r\n  function burn(uint _id, uint _amount) external {\r\n    _burn(msg.sender, _id, _amount);\r\n  }\r\n\r\n  function burnBatch(uint[] memory _ids, uint[] memory _amounts) external {\r\n    _burnBatch(msg.sender, _ids, _amounts);\r\n  }\r\n\r\n  function burnForMint(address _from, uint[] memory _burnIds, uint[] memory _burnAmounts, uint[] memory _mintIds, uint[] memory _mintAmounts) external onlyOwner {\r\n    _burnBatch(_from, _burnIds, _burnAmounts);\r\n    _mintBatch(_from, _mintIds, _mintAmounts, \"\");\r\n  }\r\n\r\n  function setURI(uint _id, string memory _uri) external onlyOwner {\r\n    tokenURI[_id] = _uri;\r\n    emit URI(_uri, _id);\r\n  }\r\n\r\n  function uri(uint _id) public override view returns (string memory) {\r\n    return tokenURI[_id];\r\n  }\r\n\r\n}\r\n    ",
  "sourcePath": "D:\\NFT tickets'\\contracts\\Pass.sol",
  "compiler": {
    "name": "solc",
    "version": "0.8.7+commit.e28d00a7.Emscripten.clang"
  },
  "schemaVersion": "3.4.4",
  "updatedAt": "2022-08-10T20:58:24.231Z",
  "devdoc": {
    "kind": "dev",
    "methods": {
      "balanceOf(address,uint256)": {
        "details": "See {IERC1155-balanceOf}. Requirements: - `account` cannot be the zero address."
      },
      "balanceOfBatch(address[],uint256[])": {
        "details": "See {IERC1155-balanceOfBatch}. Requirements: - `accounts` and `ids` must have the same length."
      },
      "isApprovedForAll(address,address)": {
        "details": "See {IERC1155-isApprovedForAll}."
      },
      "owner()": {
        "details": "Returns the address of the current owner."
      },
      "renounceOwnership()": {
        "details": "Leaves the contract without owner. It will not be possible to call `onlyOwner` functions anymore. Can only be called by the current owner. NOTE: Renouncing ownership will leave the contract without an owner, thereby removing any functionality that is only available to the owner."
      },
      "safeBatchTransferFrom(address,address,uint256[],uint256[],bytes)": {
        "details": "See {IERC1155-safeBatchTransferFrom}."
      },
      "safeTransferFrom(address,address,uint256,uint256,bytes)": {
        "details": "See {IERC1155-safeTransferFrom}."
      },
      "setApprovalForAll(address,bool)": {
        "details": "See {IERC1155-setApprovalForAll}."
      },
      "supportsInterface(bytes4)": {
        "details": "See {IERC165-supportsInterface}."
      },
      "transferOwnership(address)": {
        "details": "Transfers ownership of the contract to a new account (`newOwner`). Can only be called by the current owner."
      }
    },
    "version": 1
  },
  "userdoc": {
    "kind": "user",
    "methods": {},
    "version": 1
  }
}